:1000000009C016C02BC014C013C012C014C011C048
:100010000FC00EC011241FBECFE9CDBF20E0A0E667
:10002000B0E001C01D92A236B207E1F723D065C04F
:10003000E7CFC49A18958F938FB78F939F93C498E7
:10004000809160009091610001969093610080938F
:1000500060009F918F918FBF8F9118951F921FB64F
:100060001F92112410926100109260001F901FBE19
:100070001F90189585B7877E806185BF91E095BDFB
:1000800089E084BB84E187BB87E088BB8FE786BFBC
:100090008EE489BD82E08FBD93BF94E099BF85BB9C
:1000A000789490E2459B1DC0109261001092600010
:1000B00089B7886089BFC298209160003091610043
:1000C0002131374278F3C298C0989BBF85B78062D0
:1000D00085BF889585B78F7D85BF1BBEC09AC29AA4
:1000E000E1CF20916000309161002333310520F38E
:0E00F00089B7877F89BFC29ADFCFF894FFCF10
:00000001FF
